:100000001DC037C0CBC235C034C07EC232C031C083
:1000100030C02FC02EC02DC02CC044C3C9C20103A4
:10002000000004000000000038000000000037005D
:1000300002020202020201020408102011241FBE63
:10004000CFE5D2E0DEBFCDBF20E0AEE6B0E001C03C
:100050001D92A93AB207E1F710E0A0E6B0E0E0EEA9
:10006000FAE002C005900D92AE36B107D9F733D34E
:1000700035C5C6CF9091A2009923A1F09091A4001C
:10008000903240F59091A300E92FF0E0E259FF4F44
:10009000808381E0890F8093A3008093A40081E096
:1000A00090E008952091A00090919F002F5F921BF7
:1000B0009F7081F09091A0009F5F9F7020919F00A2
:1000C0009217E1F3E92FF0E0E258FF4F808390931D
:1000D000A000E5CF90E080E008953FB7F8948091CC
:1000E000960090919700A0919800B091990022B746
:1000F00008B601FE05C02F3F19F00196A11DB11DE4
:100100003FBFBA2FA92F982F8827BC01CD01620FBE
:10011000711D811D911D43E0660F771F881F991F78
:100120004A95D1F70895CF92DF92EF92FF92CF9345
:10013000DF936B017C01D1DFEB01CFDF6C1B7D0B0B
:10014000683E7340A0F0C114D104E104F10439F415
:10015000DF91CF91FF90EF90DF90CF90089581E0F5
:10016000C81AD108E108F108C851DC4FE6CFC11424
:10017000D104E104F10409F7EBCF8EB938E28BE248
:1001800020E2932F9A95F1F78DB9B29BFECF922F73
:100190009A95F1F78DB9769BF4CF88E28A95F1F7BD
:1001A0008FB19FEF9FB9B89A0895FF920F931F9355
:1001B000CF93DF93162F042F21E02093A100FC01A1
:1001C000208120FD03C023E02093A100C29AB29BAE
:1001D000FECF28E22A95F1F7C09820E22A95F1F7A0
:1001E000C298C09A77990AC087E08093A10080E006
:1001F000DF91CF911F910F91FF900895EC01FF24A3
:10020000FA948091A100837019F1C29888818FB906
:1002100080EFB3DFB8988EEFB0DF80FF0CC0909115
:10022000A100892F817090FF02C086E0DECF95E0AB
:100230009093A100DDCF8091A1008E7F8093A100DB
:10024000115021961111DDCF01110EC081E0D0CFE8
:10025000B89880EF92DF8883113021F4FFB88EEFD9
:100260008CDFEECF1FB8FBCFC098C29AB29BFECFF7
:1002700080E28A95F1F7C09A88E28A95F1F775993C
:10028000E5CF88E08093A100E1CF482F6091A400E2
:100290008EE690E08ADF1092A3001092A4001092E4
:1002A000A200811110C08091A100853041F08630FC
:1002B00021F0813031F481E0089582E0089583E0F7
:1002C000089584E0089580E00895C09AC29ABA9A89
:1002D000B89A8FEF8FB98AE28DB980EF8EB9089501
:1002E000CF93DF93EC018B81882399F0988181E093
:1002F0008093A200990F90936E008093A300809347
:10030000A400C3DF91E0811190E0892FDF91CF91AC
:1003100008951092A3001092A4001092A200D5DFBD
:1003200081E08B83CE01DCDF982F8111DFCFEDCF11
:100330008F929F92AF92BF92CF92DF92EF92FF92F5
:100340000F931F93CF93DF935C016B017A0110E051
:1003500000E099249394F50184819581E701C01B05
:10036000D10B8C179D0708F4EC018C2E8394F0E2DE
:10037000F81510F480E2882EF5018081880F8160E5
:1003800080936E0041E0C7018C1B9D0B0817190775
:1003900008F440E0682D8EE690E007DF9092A3001D
:1003A00081111BC09092A4008C171D0609F04FC04C
:1003B0005091A400C601800F911FDC0141E09D0116
:1003C000281B390B2C173D0760F5552359F05413A2
:1003D00021C02FEF3FEF2D93F2CF8092A4008FEF3B
:1003E000880DE2CF30919E0020919D00231B2F703D
:1003F00081F330919E0020919D003217E1F3E0914E
:100400009E00EF5FEF70E0939E00F0E0E259FF4F37
:100410002081E1CFE42FF0E0E259FF4F20814F5FD0
:10042000DACF4093A3000C0F1D1F0E151F0508F413
:1004300092CF81E0DF91CF911F910F91FF90EF90CC
:10044000DF90CF90BF90AF909F908F90089580E005
:10045000F1CF90E0FC01EA5CFF4F2491805D9F4F5B
:10046000FC018491882399F090E0880F991FFC018A
:10047000E65DFF4FA591B491FC01EC5DFF4F8591C6
:1004800094918FB7F894EC91E22BEC938FBF089581
:1004900090E0FC01E25EFF4F3491FC01EA5CFF4F0B
:1004A0002491FC01E05DFF4FE491EE23B9F033238A
:1004B00029F03130A1F48AB58F778ABDF0E0EE0FD4
:1004C000FF1FEC5DFF4FA591B4918FB7611118C06C
:1004D000F894EC9120952E232C938FBF0895323001
:1004E00019F48AB58F7DE9CF333021F480B78F7D41
:1004F00080BFE4CF343011F78CB58F7D8CBDDECF5B
:10050000F894EC912E2BE8CF1F920F920FB60F921A
:1005100011242F933F938F939F93AF93BF93809119
:10052000920090919300A0919400B0919500309129
:10053000910026E0230F2D3768F129E8230F039659
:10054000A11DB11D20939100809392009093930080
:10055000A0939400B093950080919600909197009D
:10056000A0919800B09199000196A11DB11D8093B2
:10057000960090939700A0939800B0939900BF9134
:10058000AF919F918F913F912F910F900FBE0F9040
:100590001F9018950296A11DB11DD4CF1F920F92E6
:1005A0000FB60F9211240F900FBE0F901F90189549
:1005B0001F920F920FB60F9211242F938F939F9338
:1005C000EF93FF9380918E00823009F45EC078F43F
:1005D000882349F1813009F43EC0FF91EF919F914A
:1005E0008F912F910F900FBE0F901F901895843010
:1005F00009F451C048F1853081F784E080938E0082
:100600009FB180919D008F5F8F7020919E00281771
:1006100009F446C080939D00E0919D00F0E0E2590E
:10062000FF4F90830BC08FB1882319F08FB186954F
:1006300071F4789B07C081E080938E001FB8B89A50
:100640008EE721C084E0F8CF8FB1882321F0B898DD
:1006500088EA8DB917C080919F009091A0009817EB
:10066000B1F380919F008F5F8F7080939F00E09126
:100670009F00F0E0E258FF4F80818FB982E08093C5
:100680008E00B89A80E78EB9A8CF83E080938E0061
:10069000B8981FB8D5CF85E080938E00B898F2CF78
:1006A000B898CECF1F920F920FB60F9211248F934E
:1006B00010928E00B898B29B04C0B09BFCCF88EA21
:1006C00001C088EF8DB980EF8EB98F910F900FBE6A
:1006D0000F901F901895CF93DF9300D000D000D0DB
:1006E0001F92CDB7DEB783E08ABD83BF789489B708
:1006F000826089BF80E48CBD8FEF8DBD87EC80BFA9
:1007000086E886B982E0A5DE83E0A3DE80919B00C7
:1007100090919C00009709F058D186E090E0B9D004
:100720008C0188E6F80180838AE990E092838183D6
:10073000138280E290E09583848310939C00009361
:100740009B001092A3001092A4001092A200BDDDA5
:10075000FF24F394F801F382C801C2DD882309F471
:100760003FC0E0919B00F0919C0084819581892B92
:1007700081F08081F092A200880F80936E00F09249
:10078000A300F092A40080E075DC019711F481E0F1
:100790007CDD41E050E0BE016F5F7F4F80919B00A8
:1007A00090919C00C5DD898190E0880F892F881F7A
:1007B000990BFF24F3940EE610E0892B01F161E020
:1007C00083E066DE68EC70E080E090E0ACDC60E046
:1007D00083E05EDE68EC70E080E090E0A4DCEFCFC8
:1007E00061E083E055DEFCCF61E082E051DE68E548
:1007F00072E080E090E097DC60E082E049DE198200
:10080000C0909B00D0909C00F60184819581892B3B
:10081000C9F08081F092A200880F80936E00F09260
:10082000A300F092A40080E025DC019759F480E059
:100830002CDD811107C047E050E0BE016F5F7F4FA4
:10084000C60176DD9A81892F82958F706AEF18D064
:10085000980F2B81822F82958F706AEF11D0280F0D
:10086000E6E6F0E030E091504191519124173507D0
:1008700019F4993008F4B8CF0E171F07A9F7BFCFA6
:10088000002480FD060E660F11F08695D1F7802DAD
:1008900008950F931F93CF93DF938230910510F447
:1008A00082E090E0E091A700F091A80030E020E025
:1008B000B0E0A0E0309799F42115310509F44AC061
:1008C000281B390B24303105D8F58A819B816115AD
:1008D000710589F1FB0193838283FE0111C0408180
:1008E00051810281138148175907E0F048175907D1
:1008F00099F4109761F012960C93129713961C932B
:100900003296CF01DF91CF911F910F9108950093FF
:10091000A7001093A800F4CF2115310551F042171C
:10092000530738F0A901DB019A01BD01DF01F8018D
:10093000C1CFEF01F9CF9093A8008093A700CDCF4E
:10094000FE01E20FF31F8193919322503109398305
:100950002883D7CF2091A5003091A600232B41F406
:1009600020916200309163003093A6002093A5008F
:1009700020916000309161002115310541F42DB7BF
:100980003EB74091640050916500241B350BE09107
:10099000A500F091A600E217F307A0F42E1B3F0B71
:1009A0002817390778F0AC014E5F5F4F24173507E1
:1009B00048F04E0F5F1F5093A6004093A50081930F
:1009C00091939FCFF0E0E0E09CCFCF93DF9300972F
:1009D000E9F0FC01329713821282A091A700B09136
:1009E000A800ED0130E020E01097A1F420813181D2
:1009F000820F931F2091A5003091A6002817390778
:100A000009F061C0F093A600E093A500DF91CF91BB
:100A10000895EA01CE17DF07E8F54A815B819E0160
:100A200041155105B1F7E901FB83EA8349915991D9
:100A3000C40FD51FEC17FD0761F4808191810296E8
:100A4000840F951FE90199838883828193819B8319
:100A50008A83F0E0E0E012968D919C9113970097C5
:100A6000B9F52D913C911197CD010296820F931FFC
:100A70002091A5003091A6002817390739F6309744
:100A800051F51092A8001092A700B093A600A09371
:100A9000A500BCCFD383C28340815181840F951FB1
:100AA000C817D90761F44E5F5F4F88819981480F5D
:100AB000591F518340838A819B81938382832115AF
:100AC000310509F0B0CFF093A800E093A7009ECFC6
:100AD000FD01DC01C0CF13821282D7CFF894FFCF83
:0E0AE0000000A90080000B000C000E000F00AB
:00000001FF
